:0300000002056393
:0C056300787FE4F6D8FD7581A00205AA9F
:1009820080402010080402017FBFDFEFF7FBFDFE6D
:1009920040A0583C3C18020010204088402010081B
:0809A2001022428E48201008CB
:100676004200640000605C00000D011001150216C6
:1006860002170210021502160211021102110211BE
:100696000216010F011102150216020F02150211B0
:1006A6000210021002100221021A021F0220022169
:1006B600021A02150220021B021B021B021B022049
:1006C6000219021B021F02200219021F021B021A34
:1006D600021A0200005100833F065B4F666D7D07DC
:1006E6007F6F777C395E79710042005E07D04100EA
:0206F6006E0292
:0F0B0400EF7F08C2B6A2E092B4D2B6C313DFF4FB
:010B130022BF
:0F0B14007F08C2B6C313A2B492E7D2B6DFF4FFD4
:010B230022AF
:100A8300C2B5C2B6D2B5EF4401FF120B04120B1468
:020A9300C2B5EA
:010A9500223E
:100A41007F80120A83EF5470C4540F75F00AA4FE1C
:050A5100EF540F2EFF21
:010A5600227D
:100A5700AD071FED600FE4FEEEC394B87480948B6E
:050A670050EE0E80F3CB
:010A6C002267
:100ABC00AD071FED600BE4FEEEC3943050F20E80D8
:010ACC00F732
:010ACD002206
:0E0B3300758901758CFF758AFFD2AFD2A92299
:03000B000209D116
:1009D100C0E0C083C082900065E004F07006900022
:1009E10064E004F0758CD8758AEFD082D083D0E0B2
:0109F10032D3
:1005EF00120B33E4FBFA807674002BF58274003A19
:1005FF00F583E06071B4FF0EC28C0BBB00010A7F64
:10060F0064120A5780E20BEBAE0270010A14240049
:10061F00F58274003EF583E0FF900097E4F0A3EFBE
:10062F00F074002BF58274003AF583E0FF9000958B
:10063F00E4F0A3EFF00BBB00010AD28C900095E021
:10064F00FEA3E0FF900064E06E7003A3E06F600D07
:10065F00B2B6900097A3E0FF120ABC80DFE49000CF
:06066F0064F0A3F080829C
:010675002262
:040B24007F187E00B8
:0B0B2800EF1FAC0670011E4C70F6229F
:100A9600D288D2A8D2AFD2B27F06900068E4F0A383
:020AA600DFFC73
:010AA800222B
:03000300020151A6
:10015100C0E0C0F0C083C082C0D075D000C001C073
:0B01610002C003C004C005C006C007B8
:10016C0090005DE4F07FDC7E05120B2830B20302B8
:10017C0002437BE87A0320B213D3EB9400EA940099
:10018C00400A120B24EB1B70ED1A80EA20B203021A
:10019C0002367A017BF430B213D3EB9400EA94006C
:1001AC00400A120B24EB1B70ED1A80EAE4FDE4F913
:1001BC007A007B3C20B213D3EB9400EA9400400A03
:1001CC00120B24EB1B70ED1A80EA7A017BF430B22F
:1001DC0023D3EB9400EA9400401A7FF07E00120BBC
:1001EC002890005DE004F0EB1B70011AE0D3941E24
:1001FC0040DC805874682DF582E43400F583E0C34C
:10020C0013F090005DE0C39408400E74682DF582E5
:10021C00E43400F583E04480F090005DE4F009E9FB
:10022C006408708C0DED6404708490006BE0F4FF36
:10023C0090006AE0B5071590006AE0FFC4540F7592
:0C024C00F00AA4FEEF540F2E900060F0AA
:10025800D007D006D005D004D003D002D001D0D02A
:09026800D082D083D0F0D0E03246
:0B0B4100120A96900060E0FF7E002288
:100ACE00AD071FED600B7E0BEED3940040F21E803F
:010ADE00F720
:010ADF0022F4
:10027100900072EEF0A3EFF0AF05A3ECF0A3EFF066
:10028100AF03A3EAF0A3EFF090009DE0FFA3E0909D
:100291000078CFF0A3EFF090009FE0FFA3E0900083
:1002A1007ACFF0A3EFF09000A1E0FFA3E090007CF3
:1002B100CFF0A3EFF09000A3E0FFA3E090007ECF8A
:1002C100F0A3EFF09000A5E0FFA3E0900080CFF055
:1002D100A3EFF0E4FCECB40800504D9002E3F828E1
:1002E10028730202FB0202FF02030702030B02034F
:1002F1001302031702031F020323C2B08002D2B00C
:10030100C2B1C2B78022C2B08002D2B0D2B1C2B7EC
:100311008016C2B08002D2B0C2B1D2B7800AC2B0D8
:100321008002D2B0D2B1D2B7EC25E02472F582E4DA
:100331003400F583E0FEA3E02483F58274003EF5EA
:1003410083E0F5807F01120ACEE4F5800CEC6408AD
:0B0351007083C2B0C2B1D2B7E4F580E7
:01035C00227E
:100AE000AD071FED600B7E6EEED3940040F21E80CA
:010AF000F70E
:010AF10022E2
:090B4C001204CB12000E0206F99E
:1009F2007B327A00EB1B70011AD3EB9400EA94006D
:0B0A02004009B2B67F02120AE080E952
:010A0D0022C6
:100AF200758920759850758DD9858D8BE4F587D2CF
:020B02008E2241
:1004CB00900061741EF0E4900094F0900070F0A323
:1004DB00F090005C7406F0438E40120AF2E4900038
:1004EB0095F090005CE0FF900095E0C39F5005E015
:1004FB0004F080EE900095E0FF2421F8E4F674619F
:10050B002FF8E4F69000627407F0A3F0D20090008D
:10051B006F7404F090008214F0D201120A417E0035
:10052B001207F8120B41EF642D4E602BE4900095EF
:10053B00F0900095E0C3940850E9E0FF9009929386
:10054B00F580EF12076312088FE4F5807590FF902A
:07055B000095E004F080DAD6
:010562002276
:10000E007F05120AE0120422200103020150900023
:10001E0061E0D3648094805003020150120AA9401B
:10002E000302014B1209AA400302014B120A0E40B1
:10003E00051209F2C20020000312084BD20012086A
:10004E00CB900061E0C3648094D0400302015090D5
:10005E00005EE0FFA3E0900095CFF0A3EFF0D39009
:10006E000096E09400900095E09400500302013950
:10007E00120807E4F580900070E0FD75F00A120397
:10008E005DFF3395E0FEC006C007ED75F00A120362
:10009E005DAFF0EFFD3395E0FC900094E0F975F064
:1000AE000A12035DFB3395E0FAE975F00A12035D5F
:1000BE00AFF0EF3395E090009DF0A3EFF0E4A3F0E6
:1000CE00A3F0900061E0F975F06412035DFF75F026
:1000DE000A12035DAFF0EF3395E09000A1F0A3EFAD
:1000EE00F0E975F00A12035DFF75F00A12035DAFB9
:1000FE00F0EF3395E09000A3F0A3EFF0E975F00A6E
:10010E0012035DAFF0EF3395E09000A5F0A3EFF092
:10011E00D007D0061202711208FC900096E024FF60
:10012E00F0900095E034FFF002006C120422900073
:10013E0071E06003020016120958020016C2010295
:02014E00001699
:01015000228C
:10080700E4900097F090005CE0FF900097E0FEC353
:100817009F503074612EF8E690098293F580742119
:100827002EF8E690098A93F5A0120769900094E0E4
:100837007003120A28E4F58075A0FF900097E00482
:03084700F080C27C
:01084A00228B
:10084B001207BA7C007D0612037FED04900062F064
:10085B001207BA7C007D0612037FED04900063F053
:10086B00E4FF90005CE0FEEFC39E501774212FF85D
:10087B00900062E066700974612FF8A3E06660C0B7
:03088B000F80DFFC
:01088E002247
:1008FC0030002C900063E090098293F580900062A8
:10090C00E090098A93F59012088F900094E070099A
:10091C00900070E07003120A6DE4F5807590FF2270
:10088F00120B41EF64284E700590008204F0120B9A
:10089F0041EF64134E70069000827402F0120B4108
:1008AF00EF64074E70069000827403F0120B41EF55
:0C08BF0064094E70069000827404F02260
:0607630090098A93F59055
:10076900120B41EF64124E700B90006FE06402604F
:10077900037401F0120B41EF64344E700B90006F5B
:10078900E0640160037402F0120B41EF64084E70DB
:100799000B90006FE0640460037403F0120B41EFE7
:1007A900643C4E700B90006FE0640360037404F0C6
:0107B900221D
:10042200900071E0600214F0900094E0600214F019
:10043200900070E0600214F0900061E014F090000F
:100442005CE0FF2420F8E6900066F074602FF8E686
:10045200A3F090005CE014FFEFD39400401B7420E3
:100462002FF8E6FE74212FF8A60674602FF8E6FE38
:1004720074612FF8A6061F80DF90006FE024FE60F3
:100482000F14601114601324037012786106800D3A
:100492007861168008782116800378210690007012
:1004A200E0F5993099FDC2997F01120AE09000941B
:1004B200E0F5993099FDC2997F01120AE09000613E
:0804C200E0F5993099FDC299A3
:0104CA00220F
:10095800900082E024FE600F1460111460152403D7
:100968007017900063800F9000638003900062E02E
:0A09780014F022900062E004F02267
:10092C00900082E024FE600F146011146016240302
:10093C00701990006380109000638003900062E057
:0C094C0024FEF022900062E02402F02261
:100A6D00120B41EF640F4E700C9000707408F01271
:060A7D0009F212092C220F
:100A2800120B41EF64164E700F900094740CF09006
:090A380000717403F01209F222AE
:100AA9007821E6D3940750077861E694074002C39A
:030AB90022D32223
:1009AA007F0390005CE0FEEFC39E501974212FF97B
:1009BA007821E667700C74612FF97861E667700236
:0609CA00C3220F80DDD303
:0109D0002204
:100A0E00900062E0D394075006A3E094074009904B
:0A0A1E000061E0240FF0C322D32290
:1008CB00E4FF90005CE0FEEFC39E502474212FF8F0
:1008DB00900062E066701674612FF8A3E066700DED
:1008EB00900061E0240FF01209F2C200220F80D2B7
:0108FB0022DA
:1006F9001205EF900061E0D36480948040032001EB
:1007090007E4900061F080069000617401F0120B1B
:1007190041EF642D4E6042E4FCECC3940850EF9025
:100729000061E0FF3395E0FEEF7803C333CE33CEAB
:10073900D8F9249AF58274093EF583E5822CF5826D
:10074900E43583F583E493F580EC12076312088F8F
:09075900E4F5807590FF0C80C0EE
:010762002274
:10056F00020B4CE493A3F8E493A34003F68001F24B
:10057F0008DFF48029E493A3F85407240CC8C3338D
:10058F00C4540F4420C8834004F456800146F6DF5C
:10059F00E4800B0102040810204080900676E47E70
:1005AF00019360BCA3FF543F30E509541FFEE49351
:1005BF00A360010ECF54C025E060A840B8E493A318
:1005CF00FAE493A3F8E493A3C8C582C8CAC583CA43
:1005DF00F0A3C8C582C8CAC583CADFE9DEE780BEFB
:0106F8000001
:10035D00C2D530F707B2D563F0FF05F030E70CB228
:10036D00D5F4048463F0FF05F080018430D502F4E8
:02037D00042258
:10037F00C2D5EC30E709B2D5E4C39DFDE49CFCEE99
:10038F0030E715B2D5E4C39FFFE49EFE1203B5C359
:10039F00E49DFDE49CFC80031203B530D507C3E454
:0603AF009FFFE49EFE2208
:1007BA009000A712040A7810EC4D4E4F70047CA5E5
:1007CA007DA5C3EC13FCED13FDEE13FEEF13FF50F2
:1007DA0010EC64CCFCED644CFDEE644EFEEF64CE8E
:1007EA00FFD8DF9000A7120416EE547FFE22900075
:0D07FA00A7EEF0EFA3F0A374A5F0A3F0228A
:1003B500BC000BBE0029EF8DF084FFADF022E4CC2C
:1003C500F875F008EF2FFFEE33FEEC33FCEE9DECF5
:1003D500984005FCEE9DFE0FD5F0E9E4CEFD22ED3B
:1003E500F8F5F0EE8420D21CFEADF075F008EF2F85
:1003F500FFED33FD4007985006D5F0F222C398FD76
:050405000FD5F0EA2212
:0C040A00E0FCA3E0FDA3E0FEA3E0FF2265
:0C041600ECF0A3EDF0A3EEF0A3EFF02259
:00000001FF
